S01000007265644C696768742E73726563E1
S11300000C9434000C943E000C943E000C943E007E
S11300100C943E000C943E000C943E000C943E0064
S11300200C943E000C943E000C943E000C943E0054
S11300300C943E000C943E000C943E000C943E0044
S11300400C943E000C943E000C943E000C943E0034
S11300500C943E000C943E000C943E000C943E0024
S11300600C943E000C943E0011241FBECFEFD8E048
S1130070DEBFCDBF0E9440000C945A000C940000D7
S113008087E084B980EE8AB98FEF85B92FEF33E228
S113009094EF215030409040E1F700C0000015B8C3
S11300A02FEF33E294EF215030409040E1F700C04D
S10B00B00000EBCFF894FFCF30
S9030000FC
