:100000000C9434000C943E000C943E000C943E0082
:100010000C943E000C943E000C943E000C943E0068
:100020000C943E000C943E000C943E000C943E0058
:100030000C943E000C943E000C943E000C943E0048
:100040000C943E000C943E000C943E000C943E0038
:100050000C943E000C943E000C943E000C943E0028
:100060000C943E000C943E0011241FBECFEFD8E04C
:10007000DEBFCDBF0E9440000C948D000C940000A8
:1000800087E084B980EE8AB984E020E250E490E809
:1000900041E032E085B92BB96FEF77EAE1E66150D4
:1000A0007040E040E1F700C000005BB985B96FEF38
:1000B00077EAE1E661507040E040E1F700C00000FF
:1000C0009BB985B96FEF73EDE0E361507040E0409C
:1000D000E1F700C0000045B99BB96FEF77EAE1E6B0
:1000E00061507040E040E1F700C0000035B96FEFAB
:1000F0007DE3E9E461507040E040E1F700C00000BA
:1001000085B99BB96FEF79E8E6E661507040E04051
:0E011000E1F700C000002BB9BDCFF894FFCF7F
:00000001FF
